:100000000C94E3000C9400010C9400010C9400018A
:100010000C9400010C9400010C9400010C9400015C
:100020000C9400010C9400010C94DE180C94B1198E
:100030000C9426140C9400010C9400010C94000103
:100040000C9400010C9400010C9400010C9400012C
:100050000C9400010C949E140C9400010C9400016B
:100060000C9400010C9400010C9400010C9400010C
:100070000C9400010C9400010C9400010C940001FC
:100080000C9400010C9400010C9400010C940001EC
:100090000C9400010C9400010C9400010C940001DC
:1000A0000C9400010C9400010C94000152005000CB
:1000B0004F0051002152A8002C0004001700050039
:1000C000005201001A0332007800330020004B0078
:1000D0006500790062006F0061007200640000003A
:1000E000140359006F007500720020004E0061007B
:1000F0006D00650000000403090409023B000201D1
:1001000000A0FA0904000001030101000921110106
:1001100000012244000705810308000109040100D1
:100120000103000000092111010001223B00070525
:10013000820320000112010002000000083412783E
:100140005601000102000105010906A1018506050D
:100150000719E029E71500250195087501810205B9
:1001600007190029EF1500250195F0750181020599
:1001700008190129059505750191029501750391ED
:1001800001C005010906A101050719E029E71500CD
:100190002501950875018102950175088101050702
:1001A000190029FF150026FF009506750881000536
:1001B000081901290515002501950575019102957C
:1001C0000175039101C011241FBECFEFDAE0DEBF3D
:1001D000CDBF11E0A0E0B1E0E2E7F8E302C0059096
:1001E0000D92A831B107D9F721E0A8E1B1E001C033
:1001F0001D92A43FB207E1F70E947B100C94041CEF
:100200000C94000081E00E947506811511F0289A77
:10021000089528980895982F962B9230C8F443306B
:10022000B8F470E0FB01EE0FFF1FE60FF71FE40FBD
:10023000F11D90E091958195910986709927E80FBD
:10024000F91FEE0FFF1FE455FF4F8591949108951C
:1002500081E090E008950E940B01089581E00895E7
:1002600081E008950E942E01089581E0089581E0C3
:10027000089581E008950E94390108950895089530
:100280000E943E01089508950895A6E0B0E0EBE4D1
:10029000F1E00C94741B49835A839E8330911F01B3
:1002A00089819A8131111AC03E81311599F0211549
:1002B00089F00E945407182F682F89819A810E9423
:1002C0002B0769817A81812F0E94420E2696E3E0F6
:1002D0000C94901B0E943F07182FF3CF0E945407E5
:1002E00069817A81F1CFFC01262F408151816281A1
:1002F0007381848195810E9445010895CF93DF9396
:10030000D82FC92F61E00E9473016D2F7C2F0E94AE
:100310003001811549F061E08D2F9C2F0E947301FF
:100320006D2F7C2F0E943201DF91CF9108950F93A2
:100330001F93CF93DF93D82FC92F60E00E947301E2
:100340008C016D2F7C2F0E943F016D2F7C2FC801E7
:100350000E944001DF91CF911F910F91089521E0FC
:1003600030E0A90102C0440F551F8A95E2F7CA0187
:100370000E942F060895CF93C82F81E090E00C2EA5
:1003800002C0880F991F0A94E2F70E94B10B8C2FCC
:100390000E94AF01CF91089581E0089581E0089512
:1003A0000E94CC010895CF93C82F0E94D9058C2FAD
:1003B0000E94CE018C2F0E94D0012FEF84E39CE09D
:1003C000215080409040E1F700C00000CF91089597
:1003D00081E00E94D3010E94C214089580E00E942F
:1003E000D3010E94D31408950F931F93CF93DF93EB
:1003F0008C0161E00E947301EC01B8010E94370199
:10040000811509F442C0B801CE010E943B0181155B
:10041000E1F1B801CE010E941D128115B1F1B801C0
:10042000CE010E94DE10811581F1B801CE010E943B
:10043000B310811551F1B801CE010E94450F81150D
:1004400021F1F8018581811581F0CA35FCE7DF07CC
:1004500039F178F4C130ECE7DE07F9F0C330FCE79E
:10046000DF07C9F0C115DC4771F0C8010E943501F2
:100470000DC0CB35ECE7DE07B1F0CC35DC47A9F792
:100480000E94830BF2CF0E94E80180E0DF91CF91C0
:100490001F910F9108950E94940B0E94EE01F5CFD9
:1004A0000E948C0BE2CF0E94900BDFCF0E94430191
:1004B0000E94F7130E947A0208950E947E020E9411
:1004C00044010E94FC13089581E008950895CF939C
:1004D000DF93D82F0E946402C82F811519F08D2F49
:1004E0000E9466028C2FDF91CF91089508950E949B
:1004F0006702089580E00E94770208950E946412C6
:100500000E9477020895CF930E946412C82F8091B1
:100510001A018C1779F0C0931A010E94921460930B
:100520001B0170931C0180931D0190931E018C2F61
:100530000E947702CF910895ADE0B0E0E2EAF2E0E8
:100540000C94751B488759876A877B878C879D87A2
:1005500091110E948F0A1F8286E0FE013896DE010B
:10056000119601900D928A95E1F78D8181110DC050
:1005700029813A814B815C816D817E818F810E94CE
:10058000D9092D96E2E00C94911BCE0101960E94B0
:100590007E018111EDCFF5CFFC018481813021F402
:1005A000808191810E9486070895CF93C82F81157D
:1005B000C9F08238C9F40E94711281FD13C089E329
:1005C0000E943F130E94250B2FEF87EE93E02150EE
:1005D00080409040E1F700C0000089E30E94591379
:1005E0000E94250BCF9108958338A1F40E947112C7
:1005F00080FDF8CF83E50E943F130E94250B2FEF6B
:1006000081EE94E0215080409040E1F700C000006E
:1006100083E5E4CF8438A1F40E94711282FDE2CF19
:1006200087E40E943F130E94250B2FEF81EE94E098
:10063000215080409040E1F700C0000087E4CECF19
:100640008CEF8C0F813A70F48C2F0E94B0128115C0
:1006500029F08C2F0E9459130E94250B8C2F0E9489
:100660003F13BECF80E28C0F883008F0BBCFC7703D
:1006700081E001C0880FCA95EAF70E94700AB0CFE6
:10068000811581F0823879F40E94711281FF0AC0CD
:1006900089E30E943F130E94250B89E30E945913AE
:1006A0000E94250B0895833859F40E94711280FF2F
:1006B000F9CF83E50E943F130E94250B83E5EECF1F
:1006C000843859F40E94711282FFECCF87E40E94B3
:1006D0003F130E94250B87E4E1CF9CEF980F913ADE
:1006E000E8F290E2980F9830E8F6877091E001C048
:1006F000990F8A95EAF7892F0E94760AD1CF0F9336
:100700001F93CF93C82F8B010E94D50201151105AD
:1007100039F48C2F0E944003CF911F910F910895BF
:100720008FE99FE00197F1F700C000000150110927
:10073000EDCF60E570E0893311F060E070E00E9479
:100740007F030895811521F00E94700A0E94250BF5
:100750000895811521F00E94760A0E94250B0895C4
:10076000A0E0B0E0E6EBF3E00C946F1B6C01D62F39
:10077000C72FFC011581068102950F700E94650A42
:10078000E82E8115F9F0E12E1115E1F08C2F807F14
:10079000803461F080E28D0F8830B8F18C2F807E3C
:1007A000803221F4D23088F1011579F18091DE0197
:1007B00082FF2BC082E00E94560B0E94650A91E0E6
:1007C000E82EE9269C2F92959F70983009F4C6C0B8
:1007D000F0F4923068F1925F9F70923008F459C043
:1007E000E11409F4EEC00E94610A80FDEAC0F6013E
:1007F00015820E945B0A0E948906C6010E94AC0510
:100800000E945B0A0E949906DCC0E12CDBCF993084
:1008100009F420C19A5F9F70923010F7D23F09F01F
:100820002AC18C2F8F71111123C10E948906C5C066
:100830000C2F0F70C03110F00295007F111599F048
:10084000011559F080E28D0F883010F0D11107C0EA
:10085000802F0E94700A0E94250B8D2F3BC0802F95
:100860000E94810AF8CF8D2F0E944003011509F4E0
:10087000B7CF80E28D0F883010F0D11104C0802FE7
:100880000E94760A03C0802F0E94870A0E94250BCF
:10089000A7CFFC2FFF70FF2EC07FC03219F0F2945B
:1008A00080EFF822D11541F0D130D1F1111509F4C2
:1008B00044C00115F1F0D1CF8091DE0182FD15C059
:1008C000111559F0F11429F08F2D0E94700A0E9421
:1008D000250B80E00E94D50283CF80E00E94400378
:1008E000F11409F47DCF8F2DCBCF111569F00111D3
:1008F00004C08F2D0E94A20373CF013009F070CF86
:100900008F2D0E94A70A6CCF01116ACF8F2D0E94F4
:10091000A9038F2D0E94B30A8F2D0E94960A60CFE3
:10092000111521F0063008F05BCFE3CF053008F059
:1009300057CF8F2D0E94A90353CF0115D1F3D9337F
:1009400049F42FEF87EE93E0215080409040E1F78B
:1009500000C000008D2F0E94400342CF8C2F837077
:1009600081113DC0111129C04D2F42954695477008
:10097000440F440F2D2F2F7030E0042E02C0220FA1
:10098000331F0A94E2F780E090E0D4FF09C08FE0C3
:1009900090E002C0880F991F4A95E2F780959095E4
:1009A000C695C695C370822B932BC23091F0C3308D
:1009B00099F0C13059F00E943B060E9464120E94D7
:1009C0007702CDB7DEB7E8E00C948B1B0E943206AD
:1009D000F4CF0E944406F1CF0E942F06EECF1115EE
:1009E00061F1C0FFEACF4D2F429546954770440F05
:1009F000440F2D2F2F7030E0042E02C0220F331F22
:100A00000A94E2F780E090E0D4FF09C08FE090E024
:100A100002C0880F991F4A95E2F780959095C69578
:100A2000C695C370822B932BC23071F0C33079F01E
:100A3000C13039F00E94C406C0CF823008F4BDCF67
:100A4000D2CF0E94BB06B9CF0E94CD06B6CF0E947E
:100A50005306B3CFCF70111539F08C2F0E94890641
:100A60008D2F0E94A203A9CF8D2F0E94A9038C2F46
:100A70000E949906A2CF60F4D03FB9F0D13F81F037
:100A80001115F1F10115C9F18D2F0E94D50295CFF5
:100A9000D33FB9F0D43FA1F78091DE0182FD1BC0A6
:100AA0008C2F8F71111521F3C0CE111541F0053037
:100AB00008F083CF8C2F8F710E94AB067ECF06305B
:100AC000F7CF111529F08C2F8F710E947D0675CFFD
:100AD0000E945A0672CF111531F063E08C2F8F718E
:100AE0000E94370B6ACF81E00E94560B023008F457
:100AF00064CF82E00E94560B60CF8C2F8F7195CE11
:100B0000011579F0D93349F4EFEFF7EE23E0E15026
:100B1000F0402040E1F700C000008D2F0E9440030C
:100B20004CCF8C2F8F71A4CF0F931F93CF93DF9354
:100B3000EC01688179818D810E9493078C010E946C
:100B4000D6060E942E06B801CE010E94B003DF91A6
:100B5000CF911F910F910895CF93DF93EC018C817A
:100B6000811599F0CE010E94F401811111C00E94FB
:100B7000650A811551F08D81811539F08091DE0172
:100B800082FF03C082E00E94560BDF91CF9108954F
:100B9000CE010E949405CE010E949701F6CF0E94DB
:100BA0008F0A0E94250B08950E9473130E94CF059F
:100BB00008950E947E0A0E94D4050895282F9295D8
:100BC0009F70963099F060F4925F9F70923030F48D
:100BD000203FB1F038F481E0283E38F080E00895FD
:100BE0009A5FF3CF81E0243FC9F7089591E0813FF8
:100BF00009F090E081E0283E08F080E0892B08951C
:100C000081E00895FC018481811539F08081918112
:100C10000E9486070E94DE05089580E00895A6E000
:100C2000B0E0E5E1F6E00C94751B2696E2E00C944A
:100C3000911BA7E0B0E0EFE1F6E00C94751B27965E
:100C4000E2E00C94911B08950E94230608950E94EF
:100C500024069093270180932601089508950E9409
:100C6000270608952091260130912701822B932B8E
:100C70000E942706089520912601309127018223A2
:100C800093230E9427060895209126013091270181
:100C9000822793270E94270608950E94230608951D
:100CA0000E944D0608950E9450069093250180935E
:100CB0002401089580E090E00E94530608959C016D
:100CC000892B29F481E0611579F080E0089581E0B5
:100CD00090E0AC0102C0440F551F6A95E2F7BA01DB
:100CE00062237323672B89F30895682F8091240171
:100CF000909125010E945F06089521E030E0A9014E
:100D000002C0440F551F8A95E2F7CA010E9453069C
:100D1000089521E030E002C0220F331F8A95E2F7E8
:100D20008091240190912501822B932B0E945306E0
:100D3000089521E030E002C0220F331F8A95E2F7C8
:100D40002095309580912401909125018223932351
:100D50000E945306089521E030E002C0220F331FA5
:100D60008A95E2F7809124019091250182279327AB
:100D70000E94530608952091240130912501822B71
:100D8000932B0E9453060895209124013091250150
:100D9000822393230E9453060895209124013091C9
:100DA0002501822793270E945306089508959B01E9
:100DB000677091E001C0990F6A95EAF763E0369594
:100DC00027956A95E1F7220F331F220F331FFA018F
:100DD000E20FF31F40E050E0682F70E08191DF01E7
:100DE0009B01042E02C0369527950A94E2F72170E4
:100DF00021952827292328272E934F5F5F4F4430C2
:100E0000510561F708959C01982F977083E03695FE
:100E100027958A95E1F7220F331F220F331FFB011D
:100E2000E20FF31F40E050E080E0219130E0092E16
:100E300002C0369527950A94E2F721703327042ED5
:100E400001C0220F0A94EAF7822B4F5F5F4F4430B4
:100E5000510559F70895482F862F923078F4433082
:100E600068F4292F30E0B901660F771F620F731FF6
:100E7000640F711D40E251E00E94D7060895482F8B
:100E8000923080F4833070F4292F30E0C901880F4C
:100E9000991F820F931F60E271E0840F911D0E94E1
:100EA0000307089580E00895A0E0B0E0EAE5F7E0E8
:100EB0000C946E1B8C01E0902401F0902501809130
:100EC000260190912701E82AF92ACFE0D0E0CC242E
:100ED000C394D12CC6010C2E02C0880F991F0A940E
:100EE000E2F78E219F21892B49F4219798F7B12CA5
:100EF0008B2DCDB7DEB7E9E00C948A1BBC2EB80170
:100F00008C2F0E944E0E019781F3F2CFCF93DF9387
:100F1000D82FC92F0E9454076D2F7C2F0E944E0E90
:100F2000DF91CF9108951F93CF93DF93162FD72F83
:100F300090911F01911541F0862F972F0E948607EF
:100F4000DF91CF911F910895811581F0862F972F02
:100F50000E945407C82F682F812F9D2F0E942B07B6
:100F6000612F7D2F8C2F0E944E0EEACF862F972F58
:100F70000E943F07C82FF4CF0F931F93CF93E091A8
:100F80002801C7E0809129018E1304C0CF911F91E1
:100F90000F9108950E2F10E0CE9FF0011124E65D11
:100FA000FE4F208131814281538164817581868128
:100FB0000E941906F8013196E770E4CF2091620192
:100FC0003091630140916401509165016091660127
:100FD00070916701809168010E94190608958091BF
:100FE0006801803178F480916701811559F0E091B2
:100FF000280120912901309163014091620157E05D
:101000002E1301C008956E2F70E05E9FF001112431
:10101000DF01A65DBE4F14968C911497811561F186
:1010200011968C911197831327C08C91841324C03F
:1010300015968C91159781111FC012968D919C91D8
:10104000A0916401B09165018A1B9B0B883C9105BE
:1010500098F4809168018F70806180936801E05DF1
:10106000FE4F80818F708061808382E691E00E94D4
:10107000AC050E94BC070895FB013196E770C0CF14
:10108000E09128019091290127E0E91302C080E056
:101090000895AE2FB0E02E9FF0011124E65DFE4FC3
:1010A0003181361306C03081381303C035813413C3
:1010B00004C0FD013196E770E8CF81E008958F927A
:1010C0009F92AF92BF92DF92EF92FF920F931F9386
:1010D000CF93DF93CDB7DEB72D970FB6F894DEBF71
:1010E0000FBECDBF8C0186E0F801DE01189601909D
:1010F0000D928A95E1F7F801F580848192E6892EB8
:1011000091E0992E9091660191111BC0811509F40F
:10111000FFC0F11409F440C1C8010E940206811504
:1011200009F43AC187E0F801D40101900D928A9543
:10113000E1F7C4010E94CC020E94EF070E94DE0783
:10114000E7C0E080A280B380D09067012091640165
:1011500030916501A501421B530BD11409F4DBC08A
:10116000483C510508F0A6C0811509F4D1C0909102
:101170006301918080916801803108F06BC0991201
:1011800028C0909162019E1124C0F1105DC08F7043
:101190008061809368010E94DE0782E691E00E94F0
:1011A000AC0580916801F8018683F12C8F2D2D9676
:1011B0000FB6F894DEBF0FBECDBFDF91CF911F9168
:1011C0000F91FF90EF90DF90BF90AF909F908F9026
:1011D0000895F11039C040E0692D8E2D0E9440081D
:1011E00040E0692D8E2D0E944008F82E8111DDCF40
:1011F000888599850E948607292F22952F70903423
:1012000050F49F70223080F0911599F0F80196818A
:10121000903178F4CBCF2A5F2F70223078F0C8015C
:101220000E94AC05FD2CC2CF911519F0811509F46F
:10123000BDCF805E883008F4B9CFF1CF803F08F48D
:10124000B5CF815F8330F7CF809168018160809353
:101250006801ABCF991207C0909162019E1103C043
:10126000F11409F479C0C8010E940206811509F43D
:1012700093C0F11409F490C080916801803288F025
:1012800020916201309163013A832983BC82AB8251
:10129000909166019D831E828F83CE0101960E94EC
:1012A000AC0587E0F801A2E6B1E001900D928A95C5
:1012B000E1F742CF909168019031A0F448855985BB
:1012C0006A857B858C859D850E940F0682E691E06C
:1012D0000E94AC0587E0F40111928A95E9F70E941B
:1012E000DE0763CF8115A1F020916301818128136E
:1012F000BACF809162018E11B6CFF110B4CF968330
:10130000C8010E94AC0587E0F40111928A95E9F7C3
:10131000FF24F3944BCF483C510508F041C08115A0
:10132000B9F3F114C9F190916301818198132AC036
:10133000809162018E1126C08091680180FD19C0E4
:101340008031B8F08683807F803F39F08681982F86
:10135000907F905F8F70892B8683C8010E94AC05B7
:1013600087E0F801A2E6B1E001900D928A95E1F7DD
:10137000E5CE87E0F801A2E6B1E001900D928A95F2
:10138000E1F7C6CFC8010E94020681118ACF809181
:101390006801816080936801C8010E94AC05B8CFE4
:1013A000488559856A857B858C859D850E940F06B9
:1013B00091CFAEE0B0E0EFEDF9E00C94741B28871C
:1013C00039874A875B876C877D878E87CE01089631
:1013D0000E945F086C858115A9F0611541F0288590
:1013E00039854A855B857D858E850E94190617E0C3
:1013F000809128019091290189133AC02E96E3E04B
:101400000C94901B87E0FE013896DE011196019046
:101410000D928A95E1F7611551F3A09129018A2F68
:1014200090E00196877099272091280128171906C6
:1014300089F097E09A9FD0011124A65DBE4FFE016E
:10144000319601900D929A95E1F7809329010E94BF
:10145000BC07CDCF0E94D905109229011092280116
:1014600087E0E2E6F1E0DF011D928A95E9F7BFCF60
:10147000189FC0011124865D9E4F0E945F08811550
:1014800009F4BCCFE09128011E9FF0011124E65D14
:10149000FE4F208131814281538164817581868133
:1014A0000E9419068091280190E001968770992783
:1014B000809328019DCF8091910186958695869590
:1014C000089580919101877008959091910197708E
:1014D00081E0911101C080E008958091BD010895DF
:1014E0009091BD01982B9093BD010895982F9095F0
:1014F0008091BD0189238093BD0108951092BD01A3
:1015000008959091BC01982B9093BC010895982F59
:1015100090958091BC0189238093BC01089510921D
:10152000BC01089508950E94920A08959091920135
:10153000292F2823211531F080958923809392014A
:101540000E94930A089508950E94A30A0895909115
:101550009301292F2823281729F0982B9093930182
:101560000E94A40A089590919301292F2823211500
:1015700031F080958923809393010E94A40A0895F5
:1015800080919301811529F01092930180E00E94CF
:10159000A40A0895CF93C091BD018091BC01C82BCE
:1015A00080919301811531F0C82B0E948E12811118
:1015B0000E94C00A8C2FCF910895CF93DF93C091E2
:1015C0000201D09103010E94CA0A8883C0910201DE
:1015D000D091030148E050E069E871E0CE010E943B
:1015E0009C1B892B59F088E0FE01A9E8B1E001902D
:1015F0000D928A95E1F7CE010E947412DF91CF918E
:101600000895CF93DF93C0910001D09101010E9412
:10161000CA0A8983C0910001D091010140E250E0E3
:1016200069E671E0CE010E949C1B892B59F080E293
:10163000FE01A9E6B1E001900D928A95E1F7CE0195
:101640000E947F12DF91CF9108950E94D2138130C2
:1016500039F48091DD0187FF03C00E94010B0895DA
:101660000E94DD0A089508950E94330B0895962F75
:101670002091DE0122FF11C0682F660F660F660FF2
:10168000692B609391010E94890680919101869552
:10169000869586950E94340B08950E9489060895C8
:1016A0001092910180E00E94340B08959091910175
:1016B0008095892380939101282F277021110DC0D7
:1016C000891759F09091DE0192FF07C086958695A3
:1016D00086950E9499060E94500B08959091DE0114
:1016E00092FB222720F9281769F080FB92F990934A
:1016F000DE018091DD019091DE010E94BC0B82E051
:101700000E94560B08958091DE01002482FF03940D
:10171000802D0E946E0B089581E00E946E0B08954B
:1017200080E00E946E0B08956FEF7FEF80E090E005
:101730000E94EE1B089580E090E00E94BA1B9C017D
:1017400081E0253E3E4F09F080E0089582E090E080
:101750000E94B21B089583E090E00E94B21B90E0CB
:101760000895682F83E090E00E94D01B089584E0E4
:1017700090E00E94BA1B0895BC0184E090E00E94B2
:10178000EE1B0895AB01BC018FE090E00E94E21BCC
:101790000895AB01BC0183E190E00E94E21B089533
:1017A00060E070E0CB010E94C90B089560E070E03A
:1017B000CB010E94C20B0E94D00B0895A8E0B0E0BC
:1017C000E4EEFBE00C94751B65EE7EEF80E090E0AC
:1017D0000E94EE1B60E082E090E00E94D01B81E05E
:1017E00090E090932701809326010E94B10B60E066
:1017F00074E184E090E00E94EE1B60E086E090E0FF
:101800000E94D01B60E087E090E00E94D01B40E087
:1018100050E0BA0188E090E00E94E21B60E083E2C1
:1018200090E00E94D01B60E08CE090E00E94D01B12
:1018300060E08DE090E00E94D01B19821A821B822A
:101840001C821D821E821F82188648E050E067E1DC
:1018500070E0CE0101960E94C01B40E050E0BA014A
:101860008FE190E00E94E21B0E94D60B2896E2E0F6
:101870000C94911B0E94DE0B0895682F8EE090E07F
:101880000E94D01B0895A6E0B0E0E9E4FCE00C94CF
:10189000731B0E9486148C018091BE019091BF0140
:1018A0008017910779F019821A820E948614BC0170
:1018B00049815A8180E090E00E949C021093BF0110
:1018C0000093BE012696E4E00C948F1B0E949214B4
:1018D0006093C6017093C7018093C8019093C901BA
:1018E0006093C2017093C3018093C4019093C501BA
:1018F0000895089508950E94790C089508950E940E
:101900007E0C0E947B0C089508950E94840C08951B
:1019100008950E94880C0E94850C089583E49FE03E
:101920000E9490100E947A0C0E947F0C089581E022
:10193000089581E008950E94970C089508950895F0
:1019400008950E949E0C0E949F0C0E94A00C089576
:101950000E949B0B811102C00E943A0C0E94A60BB0
:101960008093CA010E94B70B9093DE018093DD0142
:101970000E94B0100E94AB0B0E942F0680912401A0
:10198000909125010E94500608950E947D140E94A6
:10199000F30F0E94A80C0E947602EDEDF1E0808129
:1019A000806880838091DD019091DE010E94BC0BF4
:1019B0000E94890C0895A6E0B0E0E1EEFCE00C94F2
:1019C0006D1B0E94990C811108C00E94430C0E945B
:1019D00083022696EAE00C94891B0E940310109162
:1019E000C00180E00E945E0F181307C01091C10172
:1019F00081E00E945E0F181741F38091CA0181FDBA
:101A00000E94640F0E949B0CC82E80ECA82E81E0DF
:101A1000B82E00E0802F0E945E0F182FF5019191E3
:101A20005F01891739F1D82ED926F12CEE24E394E1
:101A30008D2D8E218115B9F0C114A9F0F9820A8388
:101A40000E9486149C838B8381E08D8391E0812F9B
:101A50008E21811101C090E049815A816B817C8186
:101A60008D810E949C02F394EE0CF3E0FF12E0CF14
:101A7000F501129381E0800F01E0823059F60E9457
:101A8000660CA5CF1F93CF93DF930E94530EEC01FA
:101A9000811522E5920708F04EC0811540E59407B4
:101AA00008F0C7C0883E9105E0F4803E910560F4DF
:101AB000853A910570F4049738F481E0219709F094
:101AC00080E0C82F50E0D52FCE01DF91CF911F913C
:101AD00008958D5C9109D0654397B0F3C0E0D0E0E4
:101AE000F3CFC11580E4D807E0F4C11590E2D9071F
:101AF00008F0B5C0CE019A9581159F4178F78D2FDA
:101B00000E94F40E182FCE0199270E94530E212F08
:101B100030E0322F2227E901CC27DF71C82BD92BE7
:101B2000D3CFCE0199270E94530ECC27DF70C82B4C
:101B3000D92BD06AC9CF803842E59407C8F58036E2
:101B400052E5950708F056C0C03482E5D807D0F4B6
:101B5000C03292E5D90708F046C08C2F869586954D
:101B600020E2829FC0011124C37021E030E0A9016E
:101B700002C0440F551FCA95E2F7EA01C82BD92BC2
:101B8000DD68A2CF8C2F86958695877050E2859F61
:101B9000C0011124C37021E030E0A90102C0440F4C
:101BA000551FCA95E2F7EA01C82BD92BDC688CCF08
:101BB000803C52E5950758F48F71C03AD24578F5CC
:101BC00090E0982F8827EC01C46FD06A7DCF805CAD
:101BD0009245809708F082CFDC2FCC27CC27DF718D
:101BE000C06FD06A71CFCF71D0E0DC2FCC27C16F2E
:101BF000D06A6ACF86958695877020E2829FC00161
:101C00001124C37021E030E0A90102C0440F551F28
:101C1000CA95E2F7EA01C82BD92BDA6855CF0E94A2
:101C2000F40EC82FD0E0DC2FCC27CC27DF71D06298
:101C30004BCF8F710E94F40E53E0CC0FDD1F5A95ED
:101C4000E1F7CC27DF70282F30E084FF04C050E19B
:101C5000859F90011124C22BD32BD06935CF8D2FB6
:101C60008F710E94F40E182FCE0199270E94530EF7
:101C7000212F30E0322F222722273F71282B392BAA
:101C8000E901D5CF462F672F723028F4433018F47E
:101C90000E942B01089580E090E008950E94420E7A
:101CA0000E94420D08959C01803E910509F448C0B0
:101CB000D8F48133910509F47DC048F48932910547
:101CC00009F46DC08A9709F47CC0C901089589336D
:101CD000910551F18238910539F1C597B1F780919D
:101CE000DD0185FFF2CF29C0843E910509F447C08C
:101CF00048F4823E910599F1833E9105A9F121EEC8
:101D000030E0E3CF863E910509F444C0873E91055B
:101D1000E1F68091DD0183FD61C09091DE0191FFCC
:101D20002BC024EE30E0D1CF8091DD018370811192
:101D300052C08091DE0183FFC8CF29E230E0C5CFD9
:101D40008091DD0180FD33C09091DE0190FFBDCF19
:101D500023EE30E084FFB9CF20E030E0B6CF8091B1
:101D6000DD0182FDF5CFB1CF8091DD0182FD30C074
:101D70009091DE0190FD2FC084FFA7CFEDCF809121
:101D8000DE0181FFA2CF8091DD0127EE30E084FDEE
:101D9000E3CF9BCF8091DD0183FDF7CF96CF80917C
:101DA000DD0185FD1EC08091DE0183FF8ECF29E31A
:101DB00030E08BCF8091DD0186FF87CF2AE230E0D3
:101DC00084CF8091DD0186FF80CF21E330E07DCF9D
:101DD00022EE30E07ACF20EE30E077CF26EE30E012
:101DE00074CF25E330E071CF9091DD0192FF10C0F8
:101DF00041E0282F2471243009F040E031E0282F01
:101E00002871283009F030E0431711F02CE08227C8
:101E100093FF10C041E0282F2471243109F040E0E5
:101E200031E0282F2871283109F030E0431711F0F4
:101E30002CE082273091DE0130FF10C051E0282FC6
:101E40002171213009F050E041E0282F287128301D
:101E500009F040E0541711F029E0822731FF10C04B
:101E600041E0282F2171213109F040E031E0282F95
:101E70002871283109F030E0431711F029E082275A
:101E800094FD877E089580E00895CF939C01FB0127
:101E9000805E9245C1E0809738F4C581C11104C0CD
:101EA000822F8F710E94BB018C2FCF9108950895CE
:101EB0000E94570F08950E9402010895E82FF0E054
:101EC000EF51FE4F80810895089580EA8A95F1F7D9
:101ED000089500C008950E94650F0895F894E82FB2
:101EE000E295EF70F0E041A18F7021E030E0B901A0
:101EF00002C0660F771F8A95E2F7CB01962F909567
:101F0000942391A392A1892B82A37894089584E9C4
:101F10000E946E0F86E60E946E0F87E90E946E0F88
:101F200086EC0E946E0F84E30E946E0F0895A0E07D
:101F3000B0E0EDE9FFE00C946F1BEC01D62E062F0C
:101F400010E0C8018B5E9E4F7C01FC0180818F3FB9
:101F500009F444C0F894E82FE295EF70F0E091A105
:101F60008F7021E030E001C0220F8A95EAF7892FB7
:101F7000822B81A382A12095282322A378940E94FA
:101F8000690FA2E1B1E091E0C12C8D918F3F79F012
:101F9000E82FE295EF70E05EF0E0208130E08F7096
:101FA00002C0359527958A95E2F7892F20FD80E0BC
:101FB000C82A990FF1E0A531BF0739F7F7018081F1
:101FC0008F3F11F00E946E0F61E0C11001C060E010
:101FD0008D2D0E946B0FC00FD11FC882CDB7DEB709
:101FE000E8E00C948B1B0E94870F1092E201109284
:101FF000E1011092E0011092DF0182E00E943810AE
:102000000E94580F0895A2E0B0E0E9E0F0E10C94DE
:10201000741B1A82198260E0CE0101960E94970F0C
:1020200061E0CE0101960E94970F42E050E0BE01B0
:102030006F5F7F4F8FED91E00E949C1B21E0892B09
:1020400081F420E042E061EE71E08FED91E00E94CA
:102050003910182F0E945B0F812F2296E3E00C9419
:10206000901B89819A819093E0018093DF01EACFF0
:102070000895A0E0B0E0EFE3F0E10C946F1BD82EE0
:10208000E92EF62ED72F042FC22F211579F081E0EB
:102090008093CD010E9486149093CC018093CB0154
:1020A00080E0CDB7DEB7E8E00C948B1BC090CD018B
:1020B000C114B1F38091CB019091CC010E94151411
:1020C000059770F310E0A8016D2D7E2D8F2D9D2FAB
:1020D0000E949C1B892B41F0A8016D2D7E2D8F2D18
:1020E0009D2F0E94A91BCC2D1092CD018C2FD9CFF2
:1020F0000E94DB0C08950E941F140E941C160E946F
:102100008E0C0E9436160E94C50C0E9443160E9437
:1021100048160E9478100E9462160E94A10CF7CF08
:10212000909319018093180108950E94940B0895CB
:1021300080E00E945E0F817008950E9403108FE37B
:102140009CE90197F1F700C000000E9403100E9473
:102150009810811521F00E9495100E94C2140895D4
:102160000E949D100895CF93DF93EB0186319C4729
:1021700019F50E946D0A9D819115A1F08A7A91E06E
:10218000811101C090E09093CE01811549F085E363
:102190000E943F130E94250B80E0DF91CF910895AC
:1021A00089E2F6CF8091CE01811521F085E30E946E
:1021B0005913F0CF89E2FBCF81E0EFCFCF93DF93CC
:1021C000EC01FB018581811509F4CFC09E013057D8
:1021D0002332310508F0AFC00E94B70B9093DE01A7
:1021E0008093DD01FE01E150F047E232F10520F479
:1021F000EA5FF34E0C945F1B8091DD018160809358
:10220000DD0190C08091DE0188608093DE018AC08C
:102210008091DD018260F3CF8091DD018460EFCF9A
:102220008091DD018860EBCF8091DE018160EDCF90
:102230008091DE018260E9CF8091DD018061DFCF96
:102240008091DD018062DBCF8091DD018064D7CF9A
:102250000E94D9058091DD018068D1CF8091DD0198
:102260008C60CDCF8091DE018360CFCF8091DD0186
:102270008E7FC5CF8091DE01877FC7CF8091DD0142
:102280008D7FBDCF8091DD018B7FB9CF8091DD0146
:10229000877FB5CF8091DE018E7FB7CF8091DE0141
:1022A0008D7FB3CF8091DD018F7EA9CF8091DD013D
:1022B0008F7DA5CF8091DD018F7BA1CF0E94D905B5
:1022C0008091DD018F779BCF8091DD01837F97CF58
:1022D0008091DE018C7F99CF8091DD01992782FF6B
:1022E000939590FB82F990FB83F989CF8091DE0171
:1022F000982F909590FB80F990FB81F986CF909173
:10230000DD01892F8F7B96FF806479CF0E94D905EC
:102310009091DD01892F97FB87F9805870CF81E07C
:102320000E943D0C8091DD019091DE010E94BC0B6A
:102330000E94D90580E0DF91CF91089580E0F0CF31
:102340009091DD01892F8F7E94FF806158CF90910D
:10235000DD01892F8E7F90FF816051CF9091DE014A
:10236000892F877F93FF886050CF81E0E4CF0F9360
:102370001F93CF93DF93C42FD22FFC01858181154A
:10238000C9F04093D1010E9486149093D0018093AC
:10239000CF0180E28C0F883040F4C77081E001C02B
:1023A000880FCA95EAF70E94A203DF91CF911F918F
:1023B0000F9108951091D101141333C08091CF0172
:1023C0009091D0010E941514883C910550F5C0E20F
:1023D000CD0F1D17C1F080E2810F883040F41770D7
:1023E00081E001C0880F1A95EAF70E94A903C8305E
:1023F00050F491E08D2F877001C0990F8A95EAF70C
:10240000892F0E94A203802F0E949903C83068F68A
:10241000D77081E001C0880FDA95EAF70E94A9031E
:10242000C4CF80E28C0F883008F0BFCFC77081E046
:1024300001C0880FCA95EAF7F1CF0F93DB01FC01C9
:10244000E851FC47E730F10598F5E85DF34E0C9450
:102450005F1B06E221EE41EE6AE17CE7CD010E94BE
:10246000B71180E00F91089507E225EE45EE6BE18C
:102470007CE7F4CF06E221EE40EE68E17CE7EECFA8
:1024800007E225EE44EE69E17CE7E8CF06E221EEC3
:1024900042EE6CE17CE7E2CF07E225EE46EE6DE12D
:1024A0007CE7DCCF08E221E045EE6EE17CE7D6CFA9
:1024B00015968C9181111092D10181E0D3CF909328
:1024C000D3018093D2010895E091D201F091D3011C
:1024D000309729F00190F081E02D0995089580E072
:1024E00008950E9464120895E091D201F091D30101
:1024F000309721F00280F381E02D09950895DC01E9
:10250000E091D201F091D301309739F086E08C93BD
:102510000480F581E02DCD0109950895CF93DF93D7
:10252000C0910201D091030122960E94D213813002
:1025300081F48091DD0187FF0CC0C0910001D09132
:10254000010122969EE180E0915028F4DF91CF9125
:10255000089596E0F8CF29912115B1F38F5FF4CF5C
:10256000CF93C82F811102C080E031C00E94D213E6
:10257000813021F48091DD0187FD0EC08091020140
:1025800090910301FC013296089621912C1709F1D4
:10259000E817F907D1F7E8CF8C2F869586958695B1
:1025A000C03F10F7E0910001F0910101E80FF11D2B
:1025B000228130E0C77081E090E002C0880F991F4F
:1025C000CA95E2F72823392381E0232B69F2CF91C2
:1025D000089581E0FCCF9C01FC0132968FEF90E0E2
:1025E0004191461751F08F3F19F4411101C0892FD5
:1025F0009F5F9630A9F78F3F09F40895280F311D8A
:1026000087FD3A95F901628308959C01FC01329699
:10261000285F3F4F8191861302C0DF011E92E217AF
:10262000F307C1F70895FC01862F86958695869558
:10263000603F60F4E80FF11D677021E030E001C0F9
:10264000220F6A95EAF78281822B82830895FC012A
:10265000862F869586958695603F80F4E80FF11D5C
:10266000677081E090E09C0102C0220F331F6A95E1
:10267000E2F7B90160958281682362830895CF9360
:10268000C82F0E94D2136C2F813061F48091DD013C
:1026900087FF08C080910001909101010E941313EF
:1026A000CF91089580910201909103010E94EB1255
:1026B000F7CFCF93C82F0E94D2136C2F813061F4D3
:1026C0008091DD0187FF08C0809100019091010198
:1026D0000E942713CF9108958091020190910301E8
:1026E0000E940513F7CF0E94D213813079F48091B4
:1026F000DD0187FF0BC0E0910001F09101013296EE
:102700008EE1DF011D928A95E9F70895E0910201BB
:10271000F0910301329686E0F4CF08950E948D1364
:1027200008958F5F80930701609104017091050106
:1027300080910601909107010E948E13089583E015
:102740008093070160910401709105018091060159
:10275000909107010E948E1308950E94911308958D
:1027600081E08093070160910401709105018091DF
:102770000601909107010E948E1308950E94B013E4
:10278000089591E0811101C090E09093060160915D
:1027900004017091050180910601909107010E944A
:1027A0008E1308958091060108958093050160912C
:1027B00004017091050180910601909107010E942A
:1027C0008E1308958091050108958093040160910E
:1027D00004017091050180910601909107010E940A
:1027E0008E130895809104010895089508950E941C
:1027F000F6130895089508950E94F51308950E9410
:10280000FA130E9403100E94FB1380E00E945E0FE7
:10281000811109C081E00E945E0F982F81E0911123
:1028200003C080E0089581E00895CF93DF93EC0129
:102830000E9486148C1B9D0BDF91CF91089585B764
:10284000806885BF85B7806885BF08951F921FB6D1
:102850001F9211248F939F93AF93BF938091D401C4
:10286000811113C08091E3019091E401A091E501F1
:10287000B091E6014196A11DB11D8093E3019093B3
:10288000E401A093E501B093E601BF91AF919F9160
:102890008F911F901FBE1F9018958091EB0184307F
:1028A00031F10E9456021092D40188E190E020E4B8
:1028B0000FB6F894A895809360000FBE2093600037
:1028C00083B7817F846083BF83B7816083BF78943F
:1028D000889583B78E7F83BF0FB6F894A8958091B3
:1028E0006000886180936000109260000FBE0895C0
:1028F0000E94D9050E945D02089582E084BD93E0A4
:1029000095BD9AEF97BD80936E0008952FB7F89408
:102910008091E3019091E401A091E501B091E6017D
:102920002FBF08952FB7F8946091E3017091E401EF
:102930008091E5019091E6012FBF089578941F9250
:102940001FB61F9211248F939F93AF93BF938091D3
:10295000E3019091E401A091E501B091E6010196B7
:10296000A11DB11D8093E3019093E401A093E501C3
:10297000B093E601BF91AF919F918F911F901FBEC1
:102980001F90189587E797E79093010880930008B8
:1029900088E19AE00FB6F894A895809360000FBE86
:1029A00090936000FFCF88E19AE00FB6F894A89565
:1029B000809360000FBE90936000FFCF089508954C
:1029C000282FCB01BA013091EB013430D9F42F70AC
:1029D0002093E9002FEF3091E80035FD06C035ED7A
:1029E0003A95F1F700002A95B1F72091E80025FF0C
:1029F00009C040E050E00E94D9168091E8008E772F
:102A00008093E8000895BC0140E250E082E00E941B
:102A1000E0140895CF93DF93D82FC92F0E94D213CB
:102A200048E050E06D2F7C2F81E00E94E01488E0A8
:102A3000ED2FFC2FA5EDB1E001900D928A95E1F705
:102A4000DF91CF9108958091EA01811109C00E9420
:102A500062180E94BF188091E20084608093E200B7
:102A600008951092EA0108950E94B01381E00E9437
:102A7000C11308956091E70181E0611101C080E018
:102A80000E949F1308959091EB0181E0943009F02A
:102A900080E06091E7010E94AD13089542E061EC8F
:102AA00081E00E94DE1742E261EC82E00E94DE17C4
:102AB0009091EB0181E0943009F080E06091E701B2
:102AC0000E94911308958091ED01893089F148F4B5
:102AD000823009F4A0C0833009F45AC0813041F03B
:102AE00008958A3009F487C08B3009F46CC00895CA
:102AF0008091EC01813A09F04AC08091E800877F1B
:102B00008093E8008091F0019091F101892B61F0B0
:102B100060E080E090E070E00E9429178091E8007A
:102B20008B778093E800089568E085ED91E0F3CF1E
:102B30008091EC01813259F58091F0019091F10181
:102B4000029728F58091E800877F8093E8008091C4
:102B5000E80082FF18C09091F3008091F200029784
:102B600031F48091F100813011F0863021F48091B0
:102B7000F1000E94D5138091E8008B778093E800E4
:102B80000E94121808958091EB018111E0CF089501
:102B90008091EC01813AD9F78091F0019091F10197
:102BA000892BA9F78091E800877F8093E8008091C6
:102BB000E80080FFFCCF0E94D2138093F100809147
:102BC000E8008E77DBCF8091EC01813201F78091B4
:102BD000F0019091F101892BD1F68091E800877F77
:102BE0008093E8000E9412188091EE010E94C113A8
:102BF0000E94D90508958091EC01813241F68091BF
:102C0000E800877F8093E8000E9412188091EF010E
:102C10000E94E51308958091EC01813A09F0B7CF45
:102C20008091E800877F8093E8008091E80080FF32
:102C3000FCCF0E94F213C1CF84B7877F84BF0FB649
:102C4000F894A8958091600088618093600010924C
:102C500060000FBE80E890E00FB6F89480936100AA
:102C6000909361000FBE0E94BE1308950E946218E7
:102C70000E94BF18E2EEF0E0808184608083789447
:102C80000E94451B089588E091E00E945F1208951C
:102C90008091EB01853031F48091EB01853019F0A2
:102CA0000E94781408950E944D140E94FF1381150C
:102CB00099F38091E901811579F30E94C3160E946E
:102CC000D905EACF08959A014091F2015091F3019C
:102CD0000E946B160895FC01D9018F2F992783302C
:102CE0009105C1F068F48130910509F447C002975D
:102CF00061F48BE390E02AEF30E02D933C9308954C
:102D000081329105E1F0829749F180E090E020E086
:102D100030E0F3CFCF019927E13059F082309105AF
:102D200059F0E6EFF0E0892B81F7849190E09F0164
:102D3000E4CFE0EEF0E0F9CFE4ECF0E0F6CF89E0AC
:102D400090E02CE031E061157105B9F289E090E086
:102D500025E231E06130710581F2D7CF84E490E063
:102D600022E831E06115710541F28BE390E027E440
:102D700031E06130710509F4C0CFC7CF82E190E046
:102D800025E331E0BACF80E189BD82E189BD09B494
:102D900000FEFDCF8091D8008F7D8093D800809178
:102DA000E00082608093E0008091E00081FDFCCF34
:102DB0000895AF92BF92CF92DF92EF92FF920F935E
:102DC0001F93CF936C018B017A010E943118C82F99
:102DD000811123C0E114F10439F0F7018081918160
:102DE000081B190BC80ED91EA12CB12C01151105F9
:102DF000A1F08091E80085FD21C08091E8008E77E8
:102E00008093E800E114F10499F0F7018081918149
:102E10008A0D9B1D91838083C5E08C2FCF911F91DC
:102E20000F91FF90EF90DF90CF90BF90AF900895FB
:102E30000E9431188115E9F2C82FEFCFF601819178
:102E40006F018093F10001501109FFEFAF1ABF0A23
:102E5000CDCFFC019B018091F2019091F301861787
:102E6000970718F0672B61F0C90140E0009771F4F3
:102E700041110CC08091E80082FF35C080E00895C8
:102E80008091E8008E778093E800EECF2091EB01EF
:102E90002115A9F12530A9F12091E80023FD2DC0CD
:102EA0002091E80022FDE6CF2091E80020FFDECF50
:102EB0003091F3002091F200009719F0283031058D
:102EC00058F041E02830310509F040E02091E80059
:102ED0002E772093E800CACF41914093F1000197EB
:102EE0002F5F3F4FE9CF8091EB01811541F0853095
:102EF00041F08091E80083FFBDCF81E0089582E03A
:102F0000089583E00895FC019B018091F201909166
:102F1000F3018617970718F0672B61F0C90140E0AD
:102F2000009771F441110CC08091E80082FF36C017
:102F300080E008958091E8008E778093E800EECFDE
:102F40002091EB012115B1F12530B1F12091E8007C
:102F500023FD2EC02091E80022FDE6CF2091E8005D
:102F600020FFDECF3091F3002091F200009719F09E
:102F70002830310558F041E02830310509F040E0B3
:102F80002091E8002E772093E800CACF4491409327
:102F9000F100319601972F5F3F4FE8CF8091EB0111
:102FA000811541F0853041F08091E80083FFBCCF6E
:102FB00081E0089582E0089583E00895982F973086
:102FC00028F08F708093E90081E008959093E900E4
:102FD000242F762F50E0981731F07091EC0020915B
:102FE000ED005091F00021FD02C09F5FE8CF3091CD
:102FF000EB003E7F3093EB003091ED003D7F30934E
:10300000ED003091EB0031603093EB007093EC00F9
:103010002093ED005093F0002091EE0027FDE5CFC6
:1030200080E008958091EC0187FF13C08091E80053
:1030300082FF06C08091E8008B778093E8000895B6
:103040008091EB018111F2CF08958091EB01811500
:10305000D9F38091E80080FFF8CF8091E8008E7767
:10306000ECCF2091E4003091E50095E6A901209194
:10307000EC00822F817020FF06C08091E80080FF65
:1030800006C080E008952091E80022FD1AC08091DA
:10309000EB01811589F0853089F08091EB0085FD89
:1030A0000FC02091E4003091E50042175307F9F278
:1030B0009A95E1F684E0089582E0089583E008950A
:1030C00081E008950E94D1180E94D918E0EEF0E046
:1030D000808181608083E8EDF0E080818F7780835C
:1030E00019BCA7EDB0E08C918E7F8C9380818F7E90
:1030F00080831092EA0108950F931F93CF93DF937B
:103100000E94D1180E94D918C8EDD0E088818F772D
:10311000888388818068888388818F7D888319BCB3
:103120001092EB011092E7011092E9011092E80170
:1031300000EE10E0F80180818B7F808388818160C0
:10314000888342E060E080E00E94DE17E1EEF0E07C
:1031500080818E7F8083E2EEF0E0808181608083D9
:10316000808188608083F80180818E7F8083888160
:1031700080618883DF91CF911F910F910895E8EDD1
:10318000F0E080818F7E8083E7EDF0E080818160D8
:10319000808384E082BF81E08093EA010E947C18F2
:1031A0000895E8EDF0E080818E7F80831092E20048
:1031B00008951092DA001092E10008951F920F9284
:1031C0000FB60F9211242F933F934F935F936F93FA
:1031D0007F938F939F93AF93BF93EF93FF938091D0
:1031E000E10082FF0BC08091E20082FF07C0809166
:1031F000E1008B7F8093E1000E94441B8091DA0004
:1032000080FF19C08091D80080FF15C08091DA003E
:103210008E7F8093DA008091D90080FF94C080E196
:1032200089BD82E189BD09B400FEFDCF81E08093B4
:10323000EB010E9423158091E10080FF19C080916D
:10324000E20080FF15C08091E2008E7F8093E20053
:103250008091E20080618093E2008091D8008062DA
:103260008093D80019BC85E08093EB010E943A1549
:103270008091E10084FF29C08091E20084FF25C095
:1032800080E189BD82E189BD09B400FEFDCF809156
:10329000D8008F7D8093D8008091E1008F7E80934D
:1032A000E1008091E2008F7E8093E2008091E20055
:1032B00081608093E2008091E701811509F449C0A3
:1032C00084E08093EB010E9443158091E10083FF2D
:1032D00029C08091E20083FF25C08091E100877FB3
:1032E0008093E10082E08093EB011092E7018091EE
:1032F000E1008E7F8093E1008091E2008E7F8093D9
:10330000E2008091E20080618093E20042E060E0B0
:1033100080E00E94DE178091F00088608093F000CA
:103320000E943415FF91EF91BF91AF919F918F91C2
:103330007F916F915F914F913F912F910F900FBEB1
:103340000F901F90189519BC1092EB010E94311537
:1033500072CF8091E30087FF02C083E0B2CF81E0AB
:10336000B0CF1F920F920FB60F921124EF92FF92DF
:103370000F931F932F933F934F935F936F937F937D
:103380008F939F93AF93BF93CF93EF93FF9309EEE8
:1033900010E0F8018081C091EC008F70C795CC27B8
:1033A000C795C82B108280EFE82EF12CF7018081A1
:1033B000877F808378940E94FC19F8011082F701BE
:1033C000808188608083CF70F801C083FF91EF9186
:1033D000CF91BF91AF919F918F917F916F915F91AD
:1033E0004F913F912F911F910F91FF90EF900F9070
:1033F0000FBE0F901F901895AAE2B0E0E2E0FAE14C
:103400000C94731B8CEE91E0FC0101962091F1006D
:10341000208321E0843F9207B9F70E9463158091D1
:10342000E80083FF38C08091EC019091ED019A3063
:1034300090F5E92FF0E0E15DF34E0C945F1B8038CE
:1034400089F0823841F58091F0018F70873018F54E
:103450008093E9008091EB0085FB882780F910922A
:10346000E90006C08091E901880F9091E801892B5D
:103470009091E800977F9093E8008093F10010927C
:10348000F1008091E8008E7723C0811116C08091F1
:10349000EE01813011F18091E80083FF0AC0809134
:1034A000E800877F8093E8008091EB008062809342
:1034B000EB00AA96E4E00C948F1B823061F78091B8
:1034C000EE01811589F01092E9008091E800877F74
:1034D0008093E8000E941218DECF81E0933009F05B
:1034E00080E08093E901EFCF8091F0018F702FEFA2
:1034F000280F263080F68093E9002091EB0020FF12
:10350000E2CF933031F48091EB0080628093EB0046
:10351000DACF9091EB0090619093EB0021E030E0E6
:10352000A90102C0440F551F8A95E2F74093EA00B3
:103530001092EA008091EB008860E8CF8111ABCF58
:103540001091EE011F778091E3008078812B8093AA
:10355000E3008091E800877F8093E8000E941218C2
:103560008091E80080FFFCCF8091E3008068809329
:10357000E30083E0111101C082E08093EB018BCF67
:103580008058823008F087CF8091EE019091EF0152
:103590008C3D53E0950799F583E08A838AE289831D
:1035A0004FB7F894DE01139620E03EE051E2E32F9E
:1035B000F0E050935700849120FF03C082958F70F4
:1035C0003F5F8F708A30C8F0895C90E08D939D9347
:1035D0002F5F243161F74FBF8091E800877F809390
:1035E000E8006AE270E0CE0101960E9429178091FE
:1035F000E8008B778093E8004ECF805DE6CF609146
:10360000F0017091F101AE014F5F5F4F0E946316B0
:103610008C01892B09F43FCF8091E800877F80934C
:10362000E800B80189819A810E948317E0CF803831
:1036300009F031CF8091E800877F8093E800809186
:10364000E7018093F1001DCF811125CF9091EE010C
:10365000923008F020CF8091E800877F8093E800C7
:103660009093E7010E9412188091E701811531F0D3
:1036700084E08093EB010E944E150DCF8091E30012
:1036800087FDF6CF81E0F5CF0895CF938091EB01D0
:10369000811599F08091E900C091EC008F70C79579
:1036A000CC27C795C82B1092E9008091E80083FDD4
:1036B0000E94FC19CF70C093E900CF910895EE0FDE
:1036C000FF1F0590F491E02D09942F923F924F92A5
:1036D0005F926F927F928F929F92AF92BF92CF92A2
:1036E000DF92EF92FF920F931F93CF93DF93CDB7AB
:1036F000DEB7CA1BDB0B0FB6F894DEBF0FBECDBF23
:1037000009942A88398848885F846E847D848C84F3
:103710009B84AA84B984C884DF80EE80FD800C81FC
:103720001B81AA81B981CE0FD11D0FB6F894DEBFDF
:103730000FBECDBFED010895FB01DC0104C08D91EA
:103740000190801921F441505040C8F7881B990B13
:103750000895FB01DC0102C001900D9241505040E0
:10376000D8F70895F999FECF92BD81BDF89A9927AF
:1037700080B50895A8E1B0E042E050E00C94F61B5B
:10378000DC01A40FB51F4150504048F0CB01840F1D
:10379000951F2E910E94D11B41505040D0F70895A3
:1037A000262FF999FECF92BD81BDF89A019700B4FA
:1037B000021639F01FBA20BD0FB6F894FA9AF99A9A
:1037C0000FBE08950396272F0E94D11B0E94D01B85
:1037D000252F0E94D11B242F0C94D11B0196272F3B
:1037E0000E94D11B0C94D01BDC01CB01FC01F99988
:1037F000FECF06C0F2BDE1BDF89A319600B40D923D
:1038000041505040B8F70895F894FFCF3611A711F2
:103810003E1108110C1142111011461152111C11C8
:10382000A0112011561124115A117F1128115E1177
:1038300086112E1164116C1114114A1118114E11B8
:103840003211681176118F119E1102113A11AE11C9
:103850003A1240122912341246124C1252121F1AF6
:10386000451A4B1A451A4B1A9E1AC01A4B1A171BA7
:02387000241B17
:103872009401B40100000100E2130A150315DF14DC
:08388200DE1497C634946600C1
:00000001FF
